{
  "_format": "hh-sol-artifact-1",
  "contractName": "RewardPlan",
  "sourceName": "contracts/RewardPlan.sol",
  "abi": [
    {
      "inputs": [
        {
          "internalType": "address",
          "name": "creator_",
          "type": "address"
        },
        {
          "internalType": "uint256",
          "name": "nonRefundableDuration_",
          "type": "uint256"
        },
        {
          "internalType": "uint256",
          "name": "collaborationAmount",
          "type": "uint256"
        }
      ],
      "stateMutability": "nonpayable",
      "type": "constructor"
    },
    {
      "anonymous": false,
      "inputs": [
        {
          "indexed": false,
          "internalType": "uint256",
          "name": "clientId",
          "type": "uint256"
        },
        {
          "indexed": false,
          "internalType": "address",
          "name": "clientAddress",
          "type": "address"
        }
      ],
      "name": "ClientSignedUp",
      "type": "event"
    },
    {
      "anonymous": false,
      "inputs": [
        {
          "indexed": false,
          "internalType": "address",
          "name": "founderAddress",
          "type": "address"
        },
        {
          "indexed": false,
          "internalType": "uint256",
          "name": "collaborationAmount",
          "type": "uint256"
        }
      ],
      "name": "FounderAdded",
      "type": "event"
    },
    {
      "anonymous": false,
      "inputs": [
        {
          "indexed": false,
          "internalType": "address",
          "name": "signer",
          "type": "address"
        },
        {
          "indexed": false,
          "internalType": "bool",
          "name": "allSigned",
          "type": "bool"
        }
      ],
      "name": "FounderSigned",
      "type": "event"
    },
    {
      "anonymous": false,
      "inputs": [
        {
          "indexed": false,
          "internalType": "address",
          "name": "notifierAddress",
          "type": "address"
        },
        {
          "indexed": false,
          "internalType": "address",
          "name": "addedBy",
          "type": "address"
        }
      ],
      "name": "NotifierAdded",
      "type": "event"
    },
    {
      "anonymous": false,
      "inputs": [
        {
          "indexed": false,
          "internalType": "address",
          "name": "caller",
          "type": "address"
        },
        {
          "indexed": false,
          "internalType": "uint256",
          "name": "collaboration",
          "type": "uint256"
        }
      ],
      "name": "PlanAwaken",
      "type": "event"
    },
    {
      "anonymous": false,
      "inputs": [
        {
          "indexed": false,
          "internalType": "uint256",
          "name": "clientId",
          "type": "uint256"
        },
        {
          "indexed": false,
          "internalType": "uint256",
          "name": "amount",
          "type": "uint256"
        },
        {
          "indexed": false,
          "internalType": "uint256",
          "name": "grantedReward",
          "type": "uint256"
        }
      ],
      "name": "PointsScored",
      "type": "event"
    },
    {
      "anonymous": false,
      "inputs": [
        {
          "indexed": false,
          "internalType": "address",
          "name": "founderAddress",
          "type": "address"
        },
        {
          "indexed": false,
          "internalType": "uint256",
          "name": "points",
          "type": "uint256"
        },
        {
          "indexed": false,
          "internalType": "uint256",
          "name": "reward",
          "type": "uint256"
        }
      ],
      "name": "RewardRuleAdded",
      "type": "event"
    },
    {
      "anonymous": false,
      "inputs": [
        {
          "indexed": false,
          "internalType": "address",
          "name": "founderAddress",
          "type": "address"
        },
        {
          "indexed": false,
          "internalType": "uint256",
          "name": "index",
          "type": "uint256"
        }
      ],
      "name": "RewardRuleRemoved",
      "type": "event"
    },
    {
      "anonymous": false,
      "inputs": [
        {
          "indexed": false,
          "internalType": "address",
          "name": "caller",
          "type": "address"
        }
      ],
      "name": "SigningStageBegun",
      "type": "event"
    },
    {
      "stateMutability": "payable",
      "type": "fallback"
    },
    {
      "inputs": [
        {
          "internalType": "address",
          "name": "founderAddress",
          "type": "address"
        },
        {
          "internalType": "uint256",
          "name": "collaborationAmount",
          "type": "uint256"
        }
      ],
      "name": "addFounder",
      "outputs": [],
      "stateMutability": "nonpayable",
      "type": "function"
    },
    {
      "inputs": [
        {
          "internalType": "address",
          "name": "notifierAddress",
          "type": "address"
        }
      ],
      "name": "addNotifier",
      "outputs": [],
      "stateMutability": "nonpayable",
      "type": "function"
    },
    {
      "inputs": [
        {
          "internalType": "uint256",
          "name": "scoredPoints",
          "type": "uint256"
        },
        {
          "internalType": "uint256",
          "name": "rewardAmount",
          "type": "uint256"
        }
      ],
      "name": "addRewardRule",
      "outputs": [],
      "stateMutability": "nonpayable",
      "type": "function"
    },
    {
      "inputs": [],
      "name": "allowRefundTimestamp",
      "outputs": [
        {
          "internalType": "uint256",
          "name": "",
          "type": "uint256"
        }
      ],
      "stateMutability": "view",
      "type": "function"
    },
    {
      "inputs": [
        {
          "internalType": "bool",
          "name": "reset",
          "type": "bool"
        }
      ],
      "name": "awakePlan",
      "outputs": [],
      "stateMutability": "payable",
      "type": "function"
    },
    {
      "inputs": [],
      "name": "beginSigningStage",
      "outputs": [],
      "stateMutability": "nonpayable",
      "type": "function"
    },
    {
      "inputs": [],
      "name": "creator",
      "outputs": [
        {
          "internalType": "address",
          "name": "",
          "type": "address"
        }
      ],
      "stateMutability": "view",
      "type": "function"
    },
    {
      "inputs": [
        {
          "internalType": "uint256",
          "name": "",
          "type": "uint256"
        }
      ],
      "name": "founders",
      "outputs": [
        {
          "internalType": "address",
          "name": "addr",
          "type": "address"
        },
        {
          "internalType": "uint256",
          "name": "collaborationAmount",
          "type": "uint256"
        },
        {
          "internalType": "bool",
          "name": "signed",
          "type": "bool"
        }
      ],
      "stateMutability": "view",
      "type": "function"
    },
    {
      "inputs": [],
      "name": "getFounderAddresses",
      "outputs": [
        {
          "internalType": "address[]",
          "name": "",
          "type": "address[]"
        }
      ],
      "stateMutability": "view",
      "type": "function"
    },
    {
      "inputs": [],
      "name": "getFounders",
      "outputs": [
        {
          "components": [
            {
              "internalType": "address",
              "name": "addr",
              "type": "address"
            },
            {
              "internalType": "uint256",
              "name": "collaborationAmount",
              "type": "uint256"
            },
            {
              "internalType": "bool",
              "name": "signed",
              "type": "bool"
            }
          ],
          "internalType": "struct Founder[]",
          "name": "",
          "type": "tuple[]"
        }
      ],
      "stateMutability": "view",
      "type": "function"
    },
    {
      "inputs": [],
      "name": "getNotifierAddresses",
      "outputs": [
        {
          "internalType": "address[]",
          "name": "",
          "type": "address[]"
        }
      ],
      "stateMutability": "view",
      "type": "function"
    },
    {
      "inputs": [],
      "name": "getRewardRules",
      "outputs": [
        {
          "components": [
            {
              "internalType": "uint256",
              "name": "points",
              "type": "uint256"
            },
            {
              "internalType": "uint256",
              "name": "reward",
              "type": "uint256"
            },
            {
              "internalType": "address",
              "name": "creator",
              "type": "address"
            }
          ],
          "internalType": "struct RewardPointRule[]",
          "name": "",
          "type": "tuple[]"
        }
      ],
      "stateMutability": "view",
      "type": "function"
    },
    {
      "inputs": [
        {
          "internalType": "uint256",
          "name": "targetId",
          "type": "uint256"
        }
      ],
      "name": "isClient",
      "outputs": [
        {
          "internalType": "bool",
          "name": "",
          "type": "bool"
        }
      ],
      "stateMutability": "view",
      "type": "function"
    },
    {
      "inputs": [
        {
          "internalType": "address",
          "name": "targetAddr",
          "type": "address"
        }
      ],
      "name": "isFounder",
      "outputs": [
        {
          "internalType": "bool",
          "name": "",
          "type": "bool"
        }
      ],
      "stateMutability": "view",
      "type": "function"
    },
    {
      "inputs": [
        {
          "internalType": "address",
          "name": "targetAddr",
          "type": "address"
        }
      ],
      "name": "isNotifier",
      "outputs": [
        {
          "internalType": "bool",
          "name": "",
          "type": "bool"
        }
      ],
      "stateMutability": "view",
      "type": "function"
    },
    {
      "inputs": [],
      "name": "isRefundable",
      "outputs": [
        {
          "internalType": "bool",
          "name": "",
          "type": "bool"
        }
      ],
      "stateMutability": "view",
      "type": "function"
    },
    {
      "inputs": [],
      "name": "leavePlan",
      "outputs": [],
      "stateMutability": "nonpayable",
      "type": "function"
    },
    {
      "inputs": [],
      "name": "nonRefundableDuration",
      "outputs": [
        {
          "internalType": "uint256",
          "name": "",
          "type": "uint256"
        }
      ],
      "stateMutability": "view",
      "type": "function"
    },
    {
      "inputs": [
        {
          "internalType": "uint256",
          "name": "",
          "type": "uint256"
        }
      ],
      "name": "notifierAddresses",
      "outputs": [
        {
          "internalType": "address",
          "name": "",
          "type": "address"
        }
      ],
      "stateMutability": "view",
      "type": "function"
    },
    {
      "inputs": [
        {
          "internalType": "address",
          "name": "",
          "type": "address"
        }
      ],
      "name": "notifiers",
      "outputs": [
        {
          "internalType": "bool",
          "name": "active",
          "type": "bool"
        },
        {
          "internalType": "address",
          "name": "addedBy",
          "type": "address"
        }
      ],
      "stateMutability": "view",
      "type": "function"
    },
    {
      "inputs": [
        {
          "internalType": "uint256",
          "name": "clientId",
          "type": "uint256"
        },
        {
          "internalType": "uint256",
          "name": "amount",
          "type": "uint256"
        }
      ],
      "name": "notifyPointsScored",
      "outputs": [],
      "stateMutability": "nonpayable",
      "type": "function"
    },
    {
      "inputs": [],
      "name": "refundAndReset",
      "outputs": [],
      "stateMutability": "nonpayable",
      "type": "function"
    },
    {
      "inputs": [
        {
          "internalType": "uint256",
          "name": "ruleIndex",
          "type": "uint256"
        }
      ],
      "name": "removeRewardRule",
      "outputs": [],
      "stateMutability": "nonpayable",
      "type": "function"
    },
    {
      "inputs": [],
      "name": "rewardCenter",
      "outputs": [
        {
          "internalType": "contract RewardCenter",
          "name": "",
          "type": "address"
        }
      ],
      "stateMutability": "view",
      "type": "function"
    },
    {
      "inputs": [
        {
          "internalType": "uint256",
          "name": "",
          "type": "uint256"
        }
      ],
      "name": "rewardPointsRegistry",
      "outputs": [
        {
          "internalType": "bool",
          "name": "active",
          "type": "bool"
        },
        {
          "internalType": "uint256",
          "name": "points",
          "type": "uint256"
        }
      ],
      "stateMutability": "view",
      "type": "function"
    },
    {
      "inputs": [
        {
          "internalType": "uint256",
          "name": "",
          "type": "uint256"
        }
      ],
      "name": "rewardPointsRules",
      "outputs": [
        {
          "internalType": "uint256",
          "name": "points",
          "type": "uint256"
        },
        {
          "internalType": "uint256",
          "name": "reward",
          "type": "uint256"
        },
        {
          "internalType": "address",
          "name": "creator",
          "type": "address"
        }
      ],
      "stateMutability": "view",
      "type": "function"
    },
    {
      "inputs": [],
      "name": "sign",
      "outputs": [],
      "stateMutability": "payable",
      "type": "function"
    },
    {
      "inputs": [
        {
          "internalType": "uint256",
          "name": "clientId",
          "type": "uint256"
        },
        {
          "internalType": "address",
          "name": "addr",
          "type": "address"
        }
      ],
      "name": "signUpClient",
      "outputs": [],
      "stateMutability": "nonpayable",
      "type": "function"
    },
    {
      "inputs": [],
      "name": "stage",
      "outputs": [
        {
          "internalType": "enum Stages",
          "name": "",
          "type": "uint8"
        }
      ],
      "stateMutability": "view",
      "type": "function"
    },
    {
      "stateMutability": "payable",
      "type": "receive"
    }
  ],
  "bytecode": "0x60806040523480156200001157600080fd5b50604051620037c8380380620037c8833981016040819052620000349162000152565b60008054610100600160a81b0319166101006001600160a01b03861602179055600582905562000065824262000197565b6006556000805460ff19908116825560048054336001600160a01b031991821617909155604080516060810182526001600160a01b03978816815260208101958652908101848152600180548082018255955290517fb10e2d527612073b26eecdfd717e6a320cf44b4afac2b0732d9fcbe2b7fa0cf660039095029485018054909316971696909617905591517fb10e2d527612073b26eecdfd717e6a320cf44b4afac2b0732d9fcbe2b7fa0cf782015592517fb10e2d527612073b26eecdfd717e6a320cf44b4afac2b0732d9fcbe2b7fa0cf890930180549091169215159290921790915550620001be565b6000806000606084860312156200016857600080fd5b83516001600160a01b03811681146200018057600080fd5b602085015160409095015190969495509392505050565b60008219821115620001b957634e487b7160e01b600052601160045260246000fd5b500190565b6135fa80620001ce6000396000f3fe6080604052600436106101ae5760003560e01c8063738f33f7116100eb578063b9bd6c6b1161008f578063d328074e11610061578063d328074e14610555578063d8e75f6214610577578063fbaac170146105be578063fdf6143f146105de57005b8063b9bd6c6b146104c8578063bce613f3146104de578063c040e6b81461050e578063c7b578411461053557005b8063b1993b38116100c8578063b1993b3814610451578063b58b110214610471578063b73cdd1914610486578063b908b2b9146104a857005b8063738f33f7146103cd5780638fa906b214610411578063a482918e1461043157005b80632c1fecfe116101525780633d3371491161012f5780633d33714914610326578063567eb8841461034657806364802362146103a55780637043eceb146103ba57005b80632c1fecfe146102a95780632ca15122146102cd578063301edb75146102d557005b80631e4982da1161018b5780631e4982da1461023057806321b0418d1461025057806322c1f6ea1461027457806326ad85a51461029457005b806302d05d3f146101b757806319d6560e146101f95780631d91f05a1461020e57005b366101b557005b005b3480156101c357600080fd5b506000546101dc9061010090046001600160a01b031681565b6040516001600160a01b0390911681526020015b60405180910390f35b34801561020557600080fd5b506101b56105fe565b34801561021a57600080fd5b506102236108c6565b6040516101f09190613228565b34801561023c57600080fd5b506101b561024b36600461328a565b61099d565b34801561025c57600080fd5b5061026660055481565b6040519081526020016101f0565b34801561028057600080fd5b506101b561028f3660046132ae565b610c67565b3480156102a057600080fd5b506101b5610e7c565b3480156102b557600080fd5b506006544210155b60405190151581526020016101f0565b6101b5610fc9565b3480156102e157600080fd5b5061030f6102f03660046132de565b6008602052600090815260409020805460019091015460ff9091169082565b6040805192151583526020830191909152016101f0565b34801561033257600080fd5b506102bd61034136600461328a565b6112b2565b34801561035257600080fd5b5061038661036136600461328a565b60036020526000908152604090205460ff81169061010090046001600160a01b031682565b6040805192151583526001600160a01b039091166020830152016101f0565b3480156103b157600080fd5b50610223611364565b6101b56103c8366004613305565b6113c6565b3480156103d957600080fd5b506103ed6103e83660046132de565b6115d5565b6040805193845260208401929092526001600160a01b0316908201526060016101f0565b34801561041d57600080fd5b506101b561042c366004613322565b611611565b34801561043d57600080fd5b506101b561044c3660046132de565b61197b565b34801561045d57600080fd5b506101b561046c36600461334e565b611c87565b34801561047d57600080fd5b506101b5612119565b34801561049257600080fd5b5061049b612586565b6040516101f09190613370565b3480156104b457600080fd5b506004546101dc906001600160a01b031681565b3480156104d457600080fd5b5061026660065481565b3480156104ea57600080fd5b506102bd6104f93660046132de565b60009081526008602052604090205460ff1690565b34801561051a57600080fd5b506000546105289060ff1681565b6040516101f091906133ea565b34801561054157600080fd5b506102bd61055036600461328a565b61260d565b34801561056157600080fd5b5061056a612681565b6040516101f09190613412565b34801561058357600080fd5b506105976105923660046132de565b6126fa565b604080516001600160a01b03909416845260208401929092521515908201526060016101f0565b3480156105ca57600080fd5b506101b56105d936600461334e565b61273a565b3480156105ea57600080fd5b506101dc6105f93660046132de565b612a39565b60018060005460ff166003811115610618576106186133d4565b146106585760405162461bcd60e51b815260206004820152601c60248201526000805160206135a583398151915260448201526064015b60405180910390fd5b4260065411156106aa5760405162461bcd60e51b815260206004820152601b60248201527f526566756e647320617265206e6f7420616c6c6f776564207965740000000000604482015260640161064f565b60405163c7b5784160e01b8152336004820152309063c7b578419060240160206040518083038186803b1580156106e057600080fd5b505afa1580156106f4573d6000803e3d6000fd5b505050506040513d601f19601f820116820180604052508101906107189190613467565b61075f5760405162461bcd60e51b815260206004820152601860248201527713db9b1e48199bdd5b99195c9cc8185d5d1a1bdc9a5e995960421b604482015260640161064f565b60005b60015460ff821610156108ba5760018160ff168154811061078557610785613484565b600091825260209091206002600390920201015460ff16156108a857600060018260ff16815481106107b9576107b9613484565b906000526020600020906003020160020160006101000a81548160ff02191690831515021790555060018160ff16815481106107f7576107f7613484565b6000918252602090912060039091020154600180546001600160a01b03909216916108fc919060ff851690811061083057610830613484565b9060005260206000209060030201600101549081150290604051600060405180830381858888f193505050506108a85760405162461bcd60e51b815260206004820152600d60248201527f526566756e64206661696c656400000000000000000000000000000000000000604482015260640161064f565b806108b2816134b0565b915050610762565b506108c3612a63565b50565b60015460609060009067ffffffffffffffff8111156108e7576108e76134d0565b604051908082528060200260200182016040528015610910578160200160208202803683370190505b50905060005b60015460ff821610156109975760018160ff168154811061093957610939613484565b600091825260209091206003909102015482516001600160a01b0390911690839060ff841690811061096d5761096d613484565b6001600160a01b03909216602092830291909101909101528061098f816134b0565b915050610916565b50919050565b60008060005460ff1660038111156109b7576109b76133d4565b146109f25760405162461bcd60e51b815260206004820152601c60248201526000805160206135a5833981519152604482015260640161064f565b60405163c7b5784160e01b8152336004820152309063c7b578419060240160206040518083038186803b158015610a2857600080fd5b505afa158015610a3c573d6000803e3d6000fd5b505050506040513d601f19601f82011682018060405250810190610a609190613467565b610aa75760405162461bcd60e51b815260206004820152601860248201527713db9b1e48199bdd5b99195c9cc8185d5d1a1bdc9a5e995960421b604482015260640161064f565b6001600160a01b03821660009081526003602052604090205460ff1615610b105760405162461bcd60e51b815260206004820152601660248201527f4e6f74696669657220616c726561647920616464656400000000000000000000604482015260640161064f565b60408051808201825260018082523360208084019182526001600160a01b038781166000818152600390935286832095518654945174ffffffffffffffffffffffffffffffffffffffffff1990951690151574ffffffffffffffffffffffffffffffffffffffff00191617610100948316949094029390931790945560028054938401815590527f405787fa12a823e0f2b7631cc41b3ba8828b3321ca811111fa75cd3aa3bb5ace90910180546001600160a01b0319168217905560048054935163c02c99b960e01b81529081019190915291169063c02c99b990602401600060405180830381600087803b158015610c0857600080fd5b505af1158015610c1c573d6000803e3d6000fd5b5050604080516001600160a01b03861681523360208201527f0968495a1caa61560b08a1606c088e03fb5f4e7e2c44cda5833fb62a388b989c93500190505b60405180910390a15050565b60028060005460ff166003811115610c8157610c816133d4565b14610cbc5760405162461bcd60e51b815260206004820152601c60248201526000805160206135a5833981519152604482015260640161064f565b604051633d33714960e01b81523360048201523090633d3371499060240160206040518083038186803b158015610cf257600080fd5b505afa158015610d06573d6000803e3d6000fd5b505050506040513d601f19601f82011682018060405250810190610d2a9190613467565b610d9c5760405162461bcd60e51b815260206004820152603860248201527f4e6f746966696572206e6f7420616374697665206f722069747320706172656e60448201527f74206973206e6f206c6f6e676572206120666f756e6465720000000000000000606482015260840161064f565b60048054604051631160fb7560e11b81529182018590526001600160a01b03848116602484015216906322c1f6ea90604401600060405180830381600087803b158015610de857600080fd5b505af1158015610dfc573d6000803e3d6000fd5b50505060008481526008602052604090205460ff169050610e35576000838152600860205260408120805460ff19166001908117825501555b604080518481526001600160a01b03841660208201527facad3a8fd55a5e973e78fda615d028351f1ce3c43da689c0f50ccf25bbf74d7f91015b60405180910390a1505050565b60008060005460ff166003811115610e9657610e966133d4565b14610ed15760405162461bcd60e51b815260206004820152601c60248201526000805160206135a5833981519152604482015260640161064f565b60405163c7b5784160e01b8152336004820152309063c7b578419060240160206040518083038186803b158015610f0757600080fd5b505afa158015610f1b573d6000803e3d6000fd5b505050506040513d601f19601f82011682018060405250810190610f3f9190613467565b610f865760405162461bcd60e51b815260206004820152601860248201527713db9b1e48199bdd5b99195c9cc8185d5d1a1bdc9a5e995960421b604482015260640161064f565b6000805460ff191660011790556040513381527f069e0cbace770c40f02a1214d1323bab8cd11aaa171a93d06a4b9c4eb968f75d9060200160405180910390a150565b60018060005460ff166003811115610fe357610fe36133d4565b1461101e5760405162461bcd60e51b815260206004820152601c60248201526000805160206135a5833981519152604482015260640161064f565b60405163c7b5784160e01b8152336004820152309063c7b578419060240160206040518083038186803b15801561105457600080fd5b505afa158015611068573d6000803e3d6000fd5b505050506040513d601f19601f8201168201806040525081019061108c9190613467565b6110d35760405162461bcd60e51b815260206004820152601860248201527713db9b1e48199bdd5b99195c9cc8185d5d1a1bdc9a5e995960421b604482015260640161064f565b60005b60015460ff8216101561125a5760018160ff16815481106110f9576110f9613484565b60009182526020909120600390910201546001600160a01b03163314156112485760018160ff168154811061113057611130613484565b600091825260209091206002600390920201015460ff16156111945760405162461bcd60e51b815260206004820152601660248201527f466f756e64657220616c7265616479207369676e656400000000000000000000604482015260640161064f565b60018160ff16815481106111aa576111aa613484565b906000526020600020906003020160010154341461120a5760405162461bcd60e51b815260206004820152600c60248201527f57726f6e6720616d6f756e740000000000000000000000000000000000000000604482015260640161064f565b6001808260ff168154811061122157611221613484565b60009182526020909120600390910201600201805460ff191691151591909117905561125a565b80611252816134b0565b9150506110d6565b506000611265612d36565b9050801561127b576000805460ff191660021790555b6040805133815282151560208201527f2baf99e3244456ba9c97aeb497f215de9bb6f8c8e84bc8e48df7204d41a2aaa39101610c5b565b6001600160a01b03811660009081526003602052604081205460ff1681805b60015460ff82161015611351576001600160a01b0380861660009081526003602052604090205460018054610100909204909216919060ff841690811061131a5761131a613484565b60009182526020909120600390910201546001600160a01b0316141561133f57600191505b80611349816134b0565b9150506112d1565b5081801561135c5750805b949350505050565b606060028054806020026020016040519081016040528092919081815260200182805480156113bc57602002820191906000526020600020905b81546001600160a01b0316815260019091019060200180831161139e575b5050505050905090565b60038060005460ff1660038111156113e0576113e06133d4565b1461141b5760405162461bcd60e51b815260206004820152601c60248201526000805160206135a5833981519152604482015260640161064f565b60405163c7b5784160e01b8152336004820152309063c7b578419060240160206040518083038186803b15801561145157600080fd5b505afa158015611465573d6000803e3d6000fd5b505050506040513d601f19601f820116820180604052508101906114899190613467565b6114d05760405162461bcd60e51b815260206004820152601860248201527713db9b1e48199bdd5b99195c9cc8185d5d1a1bdc9a5e995960421b604482015260640161064f565b81156115425760005461010090046001600160a01b031633146115355760405162461bcd60e51b815260206004820152601f60248201527f4f6e6c792063726561746f722063616e2072657365742074686520706c616e00604482015260640161064f565b61153d612a63565b6115a0565b600034116115925760405162461bcd60e51b815260206004820152601060248201527f4177616b65206e6565642066756e647300000000000000000000000000000000604482015260640161064f565b6000805460ff191660021790555b604080513381523460208201527f10acee40265e0989d7c7e8730bc6bdf84aa7b24992ffade8d2dee3f6c59c5fe69101610c5b565b600781815481106115e557600080fd5b60009182526020909120600390910201805460018201546002909201549092506001600160a01b031683565b60008060005460ff16600381111561162b5761162b6133d4565b146116665760405162461bcd60e51b815260206004820152601c60248201526000805160206135a5833981519152604482015260640161064f565b60405163c7b5784160e01b8152336004820152309063c7b578419060240160206040518083038186803b15801561169c57600080fd5b505afa1580156116b0573d6000803e3d6000fd5b505050506040513d601f19601f820116820180604052508101906116d49190613467565b61171b5760405162461bcd60e51b815260206004820152601860248201527713db9b1e48199bdd5b99195c9cc8185d5d1a1bdc9a5e995960421b604482015260640161064f565b6001546101001161176e5760405162461bcd60e51b815260206004820152601660248201527f466f756e64657273206c696d6974207265616368656400000000000000000000604482015260640161064f565b60005b60015460ff8216101561181857836001600160a01b031660018260ff168154811061179e5761179e613484565b60009182526020909120600390910201546001600160a01b031614156118065760405162461bcd60e51b815260206004820152601560248201527f466f756e64657220616c72656164792061646465640000000000000000000000604482015260640161064f565b80611810816134b0565b915050611771565b506004805460405163c02c99b960e01b81526001600160a01b038681169382019390935291169063c02c99b990602401600060405180830381600087803b15801561186257600080fd5b505af1158015611876573d6000803e3d6000fd5b5050604080516060810182526001600160a01b0387811680835260208084018981526000858701818152600180548082018255925295517fb10e2d527612073b26eecdfd717e6a320cf44b4afac2b0732d9fcbe2b7fa0cf6600390920291820180546001600160a01b0319169190961617909455517fb10e2d527612073b26eecdfd717e6a320cf44b4afac2b0732d9fcbe2b7fa0cf784015592517fb10e2d527612073b26eecdfd717e6a320cf44b4afac2b0732d9fcbe2b7fa0cf8909201805460ff19169215159290921790915582519081529081018690527f4934d13c6fc24cabb32861fc0b29732c3f78630dcd5b2f260961bd9cc9a64c549350019050610e6f565b60008060005460ff166003811115611995576119956133d4565b146119d05760405162461bcd60e51b815260206004820152601c60248201526000805160206135a5833981519152604482015260640161064f565b60405163c7b5784160e01b8152336004820152309063c7b578419060240160206040518083038186803b158015611a0657600080fd5b505afa158015611a1a573d6000803e3d6000fd5b505050506040513d601f19601f82011682018060405250810190611a3e9190613467565b611a855760405162461bcd60e51b815260206004820152601860248201527713db9b1e48199bdd5b99195c9cc8185d5d1a1bdc9a5e995960421b604482015260640161064f565b6007548210611ad65760405162461bcd60e51b815260206004820152601860248201527f52756c6520696e646578206f7574206f6620626f756e64730000000000000000604482015260640161064f565b336001600160a01b031660078381548110611af357611af3613484565b60009182526020909120600260039092020101546001600160a01b031614611b5d5760405162461bcd60e51b815260206004820152601760248201527f4e6f742063726561746f72206f66207468652072756c65000000000000000000604482015260640161064f565b815b600754611b6e906001906134e6565b811015611c09576007611b828260016134fd565b81548110611b9257611b92613484565b906000526020600020906003020160078281548110611bb357611bb3613484565b60009182526020909120825460039092020190815560018083015490820155600291820154910180546001600160a01b0319166001600160a01b0390921691909117905580611c0181613515565b915050611b5f565b506007805480611c1b57611c1b613530565b60008281526020808220600360001994909401938402018281556001810192909255600290910180546001600160a01b03191690559155604080513381529182018490527fdf8120cb14c007f6503f5f96b6cc9549b208013581bd1af73cc90a23e23ba56b9101610c5b565b60008060005460ff166003811115611ca157611ca16133d4565b14611cdc5760405162461bcd60e51b815260206004820152601c60248201526000805160206135a5833981519152604482015260640161064f565b60405163c7b5784160e01b8152336004820152309063c7b578419060240160206040518083038186803b158015611d1257600080fd5b505afa158015611d26573d6000803e3d6000fd5b505050506040513d601f19601f82011682018060405250810190611d4a9190613467565b611d915760405162461bcd60e51b815260206004820152601860248201527713db9b1e48199bdd5b99195c9cc8185d5d1a1bdc9a5e995960421b604482015260640161064f565b60075460009015611dd85760078054859190611daf906001906134e6565b81548110611dbf57611dbf613484565b9060005260206000209060030201600001541115611ddb565b60015b90508015611ea7576040805160608101825285815260208101858152339282019283526007805460018101825560009190915291517fa66cc928b5edb82af9bd49922954155ab7b0942694bea4ce44661d9a8736c688600390930292830155517fa66cc928b5edb82af9bd49922954155ab7b0942694bea4ce44661d9a8736c68982015590517fa66cc928b5edb82af9bd49922954155ab7b0942694bea4ce44661d9a8736c68a90910180546001600160a01b0319166001600160a01b039092169190911790556120d1565b60075460408051606080820183528782526020808301889052338385015283519182018452600080835290820181905292810183905290915b600754811015611f30578760078281548110611efe57611efe613484565b9060005260206000209060030201600001541115611f1e57809350611f30565b80611f2881613515565b915050611ee0565b50825b6007548110156120215760078181548110611f5057611f50613484565b906000526020600020906003020160405180606001604052908160008201548152602001600182015481526020016002820160009054906101000a90046001600160a01b03166001600160a01b03166001600160a01b03168152505091508260078281548110611fc257611fc2613484565b6000918252602091829020835160039290920201908155908201516001820155604090910151600290910180546001600160a01b0319166001600160a01b0390921691909117905590915081908061201981613515565b915050611f33565b50506007805460018101825560009190915281517fa66cc928b5edb82af9bd49922954155ab7b0942694bea4ce44661d9a8736c68860039092029182015560208201517fa66cc928b5edb82af9bd49922954155ab7b0942694bea4ce44661d9a8736c6898201556040909101517fa66cc928b5edb82af9bd49922954155ab7b0942694bea4ce44661d9a8736c68a90910180546001600160a01b0319166001600160a01b03909216919091179055505b60408051338152602081018690529081018490527fe06482abc2e436a1ee4a4c0c4c7a47fdabfd82d9154a3c0ff5d076764d7a0ed0906060015b60405180910390a150505050565b60005461010090046001600160a01b03163314156121795760405162461bcd60e51b815260206004820152601d60248201527f43726561746f722063616e6e6f74206c656176652074686520706c616e000000604482015260640161064f565b60405163c7b5784160e01b8152336004820152309063c7b578419060240160206040518083038186803b1580156121af57600080fd5b505afa1580156121c3573d6000803e3d6000fd5b505050506040513d601f19601f820116820180604052508101906121e79190613467565b8061225b5750604051633d33714960e01b81523360048201523090633d3371499060240160206040518083038186803b15801561222357600080fd5b505afa158015612237573d6000803e3d6000fd5b505050506040513d601f19601f8201168201806040525081019061225b9190613467565b6122a75760405162461bcd60e51b815260206004820152601860248201527f4e6f742061206d656d626572206f662074686520706c616e0000000000000000604482015260640161064f565b3360009081526003602052604090205460ff16156123e357336000908152600360205260408120805460ff191690555b6002548110156123dd57336001600160a01b0316600282815481106122fe576122fe613484565b6000918252602090912001546001600160a01b031614156123cb5760028054612329906001906134e6565b8154811061233957612339613484565b600091825260209091200154600280546001600160a01b03909216918390811061236557612365613484565b9060005260206000200160006101000a8154816001600160a01b0302191690836001600160a01b0316021790555060028054806123a4576123a4613530565b600082815260209020810160001990810180546001600160a01b03191690550190556123dd565b806123d581613515565b9150506122d7565b50612526565b60005b60015481101561252457336001600160a01b03166001828154811061240d5761240d613484565b60009182526020909120600390910201546001600160a01b03161415612512576001805461243c9082906134e6565b8154811061244c5761244c613484565b90600052602060002090600302016001828154811061246d5761246d613484565b60009182526020909120825460039092020180546001600160a01b0319166001600160a01b039092169190911781556001808301548183015560029283015492909101805460ff909316151560ff19909316929092179091558054806124d5576124d5613530565b60008281526020812060036000199093019283020180546001600160a01b03191681556001810191909155600201805460ff191690559055612524565b8061251c81613515565b9150506123e6565b505b6004805460405163ce04176b60e01b815233928101929092526001600160a01b03169063ce04176b90602401600060405180830381600087803b15801561256c57600080fd5b505af1158015612580573d6000803e3d6000fd5b50505050565b60606001805480602002602001604051908101604052809291908181526020016000905b82821015612604576000848152602090819020604080516060810182526003860290920180546001600160a01b031683526001808201548486015260029091015460ff1615159183019190915290835290920191016125aa565b50505050905090565b600080805b60015460ff8216101561267a57836001600160a01b031660018260ff168154811061263f5761263f613484565b60009182526020909120600390910201546001600160a01b03161415612668576001915061267a565b80612672816134b0565b915050612612565b5092915050565b60606007805480602002602001604051908101604052809291908181526020016000905b82821015612604576000848152602090819020604080516060810182526003860290920180548352600180820154848601526002909101546001600160a01b03169183019190915290835290920191016126a5565b6001818154811061270a57600080fd5b60009182526020909120600390910201805460018201546002909201546001600160a01b03909116925060ff1683565b60028060005460ff166003811115612754576127546133d4565b1461278f5760405162461bcd60e51b815260206004820152601c60248201526000805160206135a5833981519152604482015260640161064f565b604051633d33714960e01b81523360048201523090633d3371499060240160206040518083038186803b1580156127c557600080fd5b505afa1580156127d9573d6000803e3d6000fd5b505050506040513d601f19601f820116820180604052508101906127fd9190613467565b61286f5760405162461bcd60e51b815260206004820152603860248201527f4e6f746966696572206e6f7420616374697665206f722069747320706172656e60448201527f74206973206e6f206c6f6e676572206120666f756e6465720000000000000000606482015260840161064f565b600083815260086020526040812060010180548492906128909084906134fd565b90915550600090506128a28482612d95565b905080156129fb57600480546040516313d2faab60e21b81529182018690526001600160a01b031690634f4beaac9060240160206040518083038186803b1580156128ec57600080fd5b505afa158015612900573d6000803e3d6000fd5b505050506040513d601f19601f820116820180604052508101906129249190613546565b6001600160a01b03166108fc829081150290604051600060405180830381858888f193505050506129975760405162461bcd60e51b815260206004820152600d60248201527f526577617264206661696c656400000000000000000000000000000000000000604482015260640161064f565b600480546040516302d19dd560e31b8152918201869052602482018390526001600160a01b03169063168ceea890604401600060405180830381600087803b1580156129e257600080fd5b505af11580156129f6573d6000803e3d6000fd5b505050505b60408051858152602081018590529081018290527f806c0fab4f33509a9f822f0a8f1b7b955e551cf387bb3f45caa0f6285ad273599060600161210b565b60028181548110612a4957600080fd5b6000918252602090912001546001600160a01b0316905081565b6000805460ff19169055600554612a7a90426134fd565b60068190555060006001600081548110612a9657612a96613484565b600091825260209182902060408051606081018252600390930290910180546001600160a01b03168352600180820154948401949094526002015460ff1615159082015291505b600154811015612b8e57600454600180546001600160a01b039092169163ce04176b919084908110612b1157612b11613484565b600091825260209091206003909102015460405160e083901b6001600160e01b03191681526001600160a01b039091166004820152602401600060405180830381600087803b158015612b6357600080fd5b505af1158015612b77573d6000803e3d6000fd5b505050508080612b8690613515565b915050612add565b5060005b600254811015612c3e57600454600280546001600160a01b039092169163ce04176b919084908110612bc657612bc6613484565b60009182526020909120015460405160e083901b6001600160e01b03191681526001600160a01b039091166004820152602401600060405180830381600087803b158015612c1357600080fd5b505af1158015612c27573d6000803e3d6000fd5b505050508080612c3690613515565b915050612b92565b50612c4b60016000613150565b612c5760076000613171565b612c6360026000613192565b6040805160608101825282516001600160a01b0390811682526020938401519382019384526000928201838152600180548082018255945291517fb10e2d527612073b26eecdfd717e6a320cf44b4afac2b0732d9fcbe2b7fa0cf6600390940293840180546001600160a01b0319169190921617905591517fb10e2d527612073b26eecdfd717e6a320cf44b4afac2b0732d9fcbe2b7fa0cf782015590517fb10e2d527612073b26eecdfd717e6a320cf44b4afac2b0732d9fcbe2b7fa0cf8909101805460ff1916911515919091179055565b60006001815b60015460ff821610156109975760018160ff1681548110612d5f57612d5f613484565b600091825260209091206002600390920201015460ff16612d835760009150610997565b80612d8d816134b0565b915050612d3c565b600060028060005460ff166003811115612db157612db16133d4565b14612dec5760405162461bcd60e51b815260206004820152601c60248201526000805160206135a5833981519152604482015260640161064f565b600754612e3b5760405162461bcd60e51b815260206004820152601660248201527f4e6f207370656e642072756c657320646566696e656400000000000000000000604482015260640161064f565b6000848152600860205260408120600101546007805491929091612e6157612e61613484565b9060005260206000209060030201600001541115612e82576000915061267a565b6000805b600754811015612f90576000868152600860205260409020600101546007805483908110612eb657612eb6613484565b9060005260206000209060030201600001541480612f2157506000868152600860205260409020600101546007805483908110612ef557612ef5613484565b906000526020600020906003020160000154108015612f215750600754612f1e906001906134e6565b81145b15612f2e57809150612f90565b6000868152600860205260409020600101546007805483908110612f5457612f54613484565b9060005260206000209060030201600001541115612f7e57612f776001826134e6565b9150612f90565b80612f8881613515565b915050612e86565b508360078281548110612fa557612fa5613484565b906000526020600020906003020160010154612fc191906134fd565b471015613078576000612fd485476134e6565b9050600060078381548110612feb57612feb613484565b9060005260206000209060030201600101546007848154811061301057613010613484565b9060005260206000209060030201600001548361302d9190613563565b6130379190613582565b6000805460ff19166003178155888152600860205260408120600101805492935083929091906130689084906134e6565b9091555091945061267a92505050565b6007818154811061308b5761308b613484565b9060005260206000209060030201600001546008600087815260200190815260200160002060010160008282546130c291906134e6565b92505081905550600084600783815481106130df576130df613484565b9060005260206000209060030201600101546130fb91906134fd565b9050804711156131475761310f8682612d95565b6007838154811061312257613122613484565b90600052602060002090600302016001015461313e91906134fd565b9350505061267a565b925061267a9050565b50805460008255600302906000526020600020908101906108c391906131b0565b50805460008255600302906000526020600020908101906108c391906131e6565b50805460008255906000526020600020908101906108c39190613213565b5b808211156131e25780546001600160a01b03191681556000600182015560028101805460ff191690556003016131b1565b5090565b5b808211156131e257600080825560018201556002810180546001600160a01b03191690556003016131e7565b5b808211156131e25760008155600101613214565b6020808252825182820181905260009190848201906040850190845b818110156132695783516001600160a01b031683529284019291840191600101613244565b50909695505050505050565b6001600160a01b03811681146108c357600080fd5b60006020828403121561329c57600080fd5b81356132a781613275565b9392505050565b600080604083850312156132c157600080fd5b8235915060208301356132d381613275565b809150509250929050565b6000602082840312156132f057600080fd5b5035919050565b80151581146108c357600080fd5b60006020828403121561331757600080fd5b81356132a7816132f7565b6000806040838503121561333557600080fd5b823561334081613275565b946020939093013593505050565b6000806040838503121561336157600080fd5b50508035926020909101359150565b602080825282518282018190526000919060409081850190868401855b828110156133c757815180516001600160a01b0316855286810151878601528501511515858501526060909301929085019060010161338d565b5091979650505050505050565b634e487b7160e01b600052602160045260246000fd5b602081016004831061340c57634e487b7160e01b600052602160045260246000fd5b91905290565b602080825282518282018190526000919060409081850190868401855b828110156133c75781518051855286810151878601528501516001600160a01b0316858501526060909301929085019060010161342f565b60006020828403121561347957600080fd5b81516132a7816132f7565b634e487b7160e01b600052603260045260246000fd5b634e487b7160e01b600052601160045260246000fd5b600060ff821660ff8114156134c7576134c761349a565b60010192915050565b634e487b7160e01b600052604160045260246000fd5b6000828210156134f8576134f861349a565b500390565b600082198211156135105761351061349a565b500190565b60006000198214156135295761352961349a565b5060010190565b634e487b7160e01b600052603160045260246000fd5b60006020828403121561355857600080fd5b81516132a781613275565b600081600019048311821515161561357d5761357d61349a565b500290565b60008261359f57634e487b7160e01b600052601260045260246000fd5b50049056fe4e6f7420616c6c6f7765642061742063757272656e7420737461676500000000a26469706673582212201cdf64a32c6c850c2e9dd919228eae78fc25e9e138b877fa9e5c9424798af22f64736f6c63430008090033",
  "linkReferences": {},
  "deployedLinkReferences": {}
}